:020000040800F2
:1000000000000120C5020008CB020008CF02000852
:1000100041030008450300088D03000800000000AC
:10002000000000000000000000000000D5030008F0
:10003000D903000800000000DD030008F1120008E9
:10004000F1030008F1030008F1030008F1030008C0
:10005000F1030008F1030008150D0008310D000838
:10006000F1030008F1030008F1030008F1030008A0
:10007000F1030008F1030008F1030008F103000890
:10008000F1030008F1030008F1030008000000007C
:10009000000000000000000000000000F103000864
:1000A000F1030008F1030008F1030008F103000860
:1000B000F103000815080008F1030008F103000827
:1000C000F1030008F1030008F1030008F103000840
:1000D000F1030008F1030008F1030008000000002C
:1000E000F1030008F1030008F1030008000000001C
:1000F000000000000000000000000000F103000804
:1001000000000000F1030008F1030008F1030008FB
:1001100000000000000000000000000000000000DF
:10012000F1030008F1030008F1030008F1030008DF
:10013000F1030008000000000000000000000000C3
:10014000000000000000000000000000F1030008B3
:10015000F1030008F1030008F1030008F1030008AF
:10016000F1030008F1030008000000000000000097
:10017000000000000000000000000000000000007F
:1001800000000000F1030008000000000000000073
:10019000F103000800B583B000F0BAF9384B394AD2
:1001A0001360394A1360394900E02146384B9942BF
:1001B0000BD20A684B6801F10C0488689842F4D9A4
:1001C0001168196004330432F8E72E4B1A68314B7A
:1001D0009A4200D0FEE72C4B1A682F4B9A42F9D175
:1001E000274B2E4A13602E4A13602E4B05E0002049
:1001F000106004329342FAD80B462B4A934204D241
:10020000194651F8082B5B68F4E7244B1B6813B9B7
:10021000234B1B6803B1FEE700F086F9694601A88D
:1002200000F022F9214C224BE41AA4100025AC4224
:1002300014DC204C204BE41AA4100025AC4213DC43
:100240000099019801F0F6F805461C4C1C4BE41A85
:10025000A410002C0EDC284600F0E2F8144B53F8F2
:10026000253098470135E2E7134B53F8253098477E
:100270000135E3E7013C124B53F824309847E8E797
:10028000BABADECA0000002078000020F40300089B
:100290000C04000878563412325476987C00002002
:1002A000EC0200200C0400081C0400081C040008D8
:1002B0001C0400081C0400081C0400081C0400089E
:1002C0001C04000808B5FFF765FF00BEFEE71EF03E
:1002D000040F0CBFEFF30880EFF309807146414A29
:1002E00010472DE9F04182B004468846124B5E6B00
:1002F0009F6B9D6A1B6B13F0020F03D00E4BDB6AE2
:10030000002B0CDB0D4800F0B7F8CDF800803B4621
:1003100032462946204600F00BF900BEFEE74BF6B8
:10032000AB6100F07FF90028ECD0034B4FF00042A6
:10033000DA6202B0BDE8F08100ED00E0641F000861
:1003400000BEFEE71EF0040F0CBFEFF30880EFF3D2
:1003500009807146244A10472DE9F04182B00446D5
:100360008846084B5E6B9F6B9D6A074800F084F8D7
:10037000CDF800803B4632462946204600F0D8F8AA
:1003800000BEFEE700ED00E0741F00081EF0040F41
:100390000CBFEFF30880EFF309807146134A104752
:1003A0002DE9F04182B004468846084B5E6B9F6B96
:1003B0009D6A074800F060F8CDF800803B46324661
:1003C0002946204600F0B4F800BEFEE700ED00E04C
:1003D000801F000800BEFEE700BEFEE700BEFEE78D
:1003E00070470000E302000859030008A103000859
:0403F00000BEFEE766
:1003F400CC1E0208000000207C000020CC1E020855
:1004040000000010000000107C000020F00200201A
:080414000000001000000010C0
:10042000FEE7000008B503460C4A12685AB10B4AB1
:100430001068033323F003030344094A934206D8A8
:10044000064A136008BD054A06491160EFE701F04E
:1004500087F80C2303604FF0FF30F3E780000020A3
:1004600000FC0020F002002001230360014B0B6020
:10047000704700BF040000200FB400B583B004AB88
:1004800053F8042B01938021064801F09BF80028C3
:1004900003DD0146034800F037F803B05DF804EBD4
:1004A00004B07047880000202DE9F04385B0044671
:1004B0000F4643560BB10E461EE004252846214642
:1004C000ABBE0446384605B0BDE8F08314F9011B05
:1004D00004AA1A4402F8101C0133AB42F6D304AA52
:1004E0001344002203F8102C4FF00408E94640465C
:1004F0004946ABBE8046761B002EE3D03546102E13
:1005000028BF10250023E8E708B5FFF7CDFF08BD99
:1005100008B500F097F8024A024B9A6008BD00BF88
:100520000000000800ED00E008B500F0ABF808BDE1
:10053000F8B504460D4617461E462748FFF79CFFB0
:1005400021682648FFF798FF61682548FFF794FF68
:10055000A1682448FFF790FFE1682348FFF78CFF6C
:1005600021692248FFF788FF61692148FFF784FF6E
:10057000A1692048FFF780FFE1691F48FFF77CFF72
:100580001E48FFF779FF29461D48FFF775FF1D4CF0
:10059000E16A1D48FFF770FF216B1C48FFF76CFFF5
:1005A000E16B1B48FFF768FF15F0800F0AD115F4C7
:1005B000004F0CD11748FFF75FFF06991648FFF769
:1005C0005BFFF8BD39461548FFF756FFEFE73146A8
:1005D0001348FFF751FFEDE7481E0008581E0008BA
:1005E000681E0008781E0008881E0008981E000873
:1005F000A81E0008B81E0008C81E0008D81E000863
:10060000E41E000800ED00E0F41E0008041F0008CE
:10061000141F0008441F00084C1F0008241F000876
:10062000341F000883691A888A4201D0002070476D
:100630000268033A012A03D802338361012070471C
:10064000002070470C4B1A6842F001021A6000212A
:1006500099601A6822F0847222F480321A60074A84
:100660005A601A6822F480221A60D960044B4FF055
:1006700000629A60704700BF0038024010300024CA
:1006800000ED00E0224B9B6803F00C03042B14D018
:10069000082B16D01BB11F4B1F4A1A6002E01D4BDE
:1006A0001D4A1A601A4B9B68C3F303131B4AD15CA3
:1006B000184A1368CB4013607047164B164A1A60ED
:1006C000F0E7134B5A685B6803F03F0312F4800FA6
:1006D00013D0114AB2FBF3F20D4B5B68C3F38813DE
:1006E00003FB02F30A4A5268C2F30142013252008C
:1006F000B3FBF2F3074A1360D4E7074AB2FBF3F205
:10070000034B5B68C3F3881303FB02F3EAE700BF04
:10071000003802400C0000200024F400901F000864
:100720000D4B1A6822F070021A601A6842F010022B
:100730001A601A6842F080021A601A6842F00402D5
:100740001A601A6822F002021A60DA6822F00102C6
:10075000DA6007229A627047000400401B4B196060
:100760001B4B00221A701B4BA3FB0023DB0B1A4A06
:100770001360C3EB0343C11A184B19601168184B7F
:10078000196018490B6823F001030B6013688BB9DB
:10079000124B1A68134BDA625A6942F001025A612D
:1007A0001A6842F001021A600E4AD36843F001034E
:1007B000D36070474FF6FF72CA624A6942F0010285
:1007C0004A610A6842F001020A60EDE71401002064
:1007D0001801002001800080100100200C01002081
:1007E0000801002000040040074B1B689BB2074A29
:1007F000106880B21B1A9BB2054AD06A526A801AEE
:10080000C3EB034318447047100100200801002087
:100810000004004008B52E4B1B7833B12D4B1A68ED
:100820002D4B1A602A4B00221A702B4B1B68012B90
:1008300010D9294A1368013B1360284B1A6922F02A
:1008400001021A614FF6FF72DA625A6942F0010240
:100850005A6108BD204B1B68012B23D0204B1B780D
:1008600043B91E4BDA6822F00102DA601A6822F0FE
:1008700001021A601B4B1B689847184A136923F042
:1008800001031361134B1B68EBB113464FF6FF7264
:10089000DA62124A536943F0010353610C4B01229F
:1008A0001A70D6E70C4A1368013B13600B4B1A69A8
:1008B00022F001021A610C4A1268DA625A6942F0A7
:1008C00001025A61C5E7084B1A68044BDA62E0E797
:1008D000100000201001002008010020000400404A
:1008E00018010020140100200C0100200E4B1B7881
:1008F000472B09D0072B0BD01A2B0DD0482B0FD02C
:100900000A4B00221A707047084B01221A70704778
:10091000064B02221A707047044B03221A7070476C
:10092000024B04221A707047E401002019010020D4
:1009300008B51B4B00221A701A4B1B68A3F51C53F9
:10094000103B41F28832934221D8002309E0012272
:1009500002FA03F11248027822EA0102027001331E
:10096000DBB2072B11D803F111020E4951F82220F6
:10097000A2F5FA62B2F5967FE9D8012202FA03F1F4
:10098000074802780A430270E9E7FFF7AFFF002348
:10099000054A1370034A1360044A137008BD00BF70
:1009A000E40100201C010020E6010020E5010020F8
:1009B00010B50D4B1B787BB1FFF716FF0B4C22785F
:1009C00040080B4B43F822000A490B48FFF7C6FECC
:1009D00023780133237010BD06490748FFF7BEFE98
:1009E000014B01221A70F6E7E6010020E501002024
:1009F0001C01002031090008A086010008B5012271
:100A00000021104600F0A2F901221146104600F024
:100A10009DF901220221104600F098F901220321DC
:100A2000104600F093F901220421104600F08EF9DF
:100A300001220521104600F089F901220621104605
:100A400000F084F901220721104600F07FF901230C
:100A500000221146184600F0B7F90123002219467A
:100A6000184600F0B1F9012300220221184600F0D7
:100A7000ABF9012300220321184600F0A5F9012358
:100A800000220421184600F09FF9012300220521CD
:100A9000184600F099F9012300220621184600F0BB
:100AA00093F9012300220721184600F08DF908BDB3
:100AB00070B505460E4600243AE02A5D02F00102B8
:100AC0000021012000F0F4F92A5DC2F34002012167
:100AD000084600F0EDF92A5DC2F3800202210120F0
:100AE00000F0E6F92A5DC2F3C0020321012000F004
:100AF000DFF92A5DC2F300120421012000F0D8F9C9
:100B00002A5DC2F340120521012000F0D1F92A5DCF
:100B1000C2F380120621012000F0CAF92A5DD20931
:100B20000721012000F0C4F9642000F043FC0134E7
:100B3000B442C2D370BD10B582B004460122032175
:100B4000002000F001FA0DF10701204600F06EFBD5
:100B500002B010BD10B582B0044600220321104639
:100B600000F0F2F90DF10701204600F05FFB02B042
:100B700010BD08B501220221002000F0E5F9642033
:100B800000F018FC00220221104600F0DDF964207C
:100B900000F010FC01220221002000F0D5F96420B1
:100BA00000F008FC00220221104600F0CDF964207C
:100BB00000F000FC01220221002000F0C5F96420B1
:100BC00000F0F8FB1120FFF7C5FF0A2000F06EFBD4
:100BD0003A20FFF7BFFF0520FFF7ADFF2920FFF701
:100BE000B9FF08BD70B506462A20FFF7B3FF002005
:100BF000FFF7A1FF0020FFF79EFF0020FFF79BFFFC
:100C00007F20FFF798FF2B20FFF7A4FF0020FFF7BE
:100C100092FF0020FFF78FFF0020FFF78CFF9F203F
:100C2000FFF789FF2C20FFF795FF00240AE036F834
:100C30001400C5B2000AFFF77EFF2846FFF77BFFCE
:100C40000134A4B2B4F5A04FF1D370BD30B4830821
:100C50000A4A023352F8234000F0030080000F25B7
:100C6000854024EA050442F8234052F8234081409D
:100C7000214342F8231030BC704700BF00380140C8
:100C800011B1012908D0704708490B68012202FA06
:100C900000F018430860704704490B68012202FA0B
:100CA00000F023EA00000860704700BF003C0140EC
:100CB00001290FD011B1022918D07047114B996842
:100CC000012202FA00F001439960DA6822EA00008A
:100CD000D86070470B4BD968012202FA00F001433B
:100CE000D9609A6822EA000098607047054A9168C6
:100CF000012303FA00F001439160D3681843D060E8
:100D0000704700BF003C0140014B1860704700BFB6
:100D1000E801002008B5044B1B689847034A536953
:100D200043F00103536108BDE8010020003C01408D
:100D300008B5044B5B689847034A536943F00203C4
:100D4000536108BDE8010020003C014010B40128B7
:100D500014D018B1022823D010BC70470C29FBD83E
:100D6000164B1868490003248C4020EA04001860E0
:100D7000186802FA01F101431960EDE78B1EDBB23E
:100D8000022BE9D90E4B1868490003248C4020EA55
:100D900004001860186802FA01F101431960DBE7EA
:100DA000084B1868490003248C4020EA04001860AE
:100DB000186802FA01F101431960CDE70000024012
:100DC000000402400008024010B4012826D018B1E7
:100DD000022847D010BC70470C29FBD87AB1012AF1
:100DE00015D0304A9068490003248C4020EA040062
:100DF0009060906803FA01F101439160EAE7294CA1
:100E000062680120884022EA00026260E9E7254C1E
:100E100062680120884002436260E2E7881EC0B237
:100E20000228D7D97AB1012A15D01F4A9068490003
:100E300003248C4020EA04009060906803FA01F1DA
:100E400001439160C6E7184C62680120884022EA9D
:100E500000026260E9E7144C6268012088400243A6
:100E60006260E2E77AB1012A15D0104A9068490021
:100E700003248C4020EA04009060906803FA01F19A
:100E800001439160A6E7084C62680120884022EA8D
:100E900000026260E9E7044C626801208840024376
:100EA0006260E2E7000002400004024000080240E5
:100EB000012818D010B102282CD070470C293BD83B
:100EC00042B1012A38D11D48436902FA01F11943A0
:100ED0004161704719484369012202FA01F123EA8E
:100EE0000101416170478B1EDBB2022B24D942B154
:100EF000012A21D11248436902FA01F119434161E3
:100F000070470F484369012202FA01F123EA010107
:100F10004161704742B1012A0ED10A48436902FA81
:100F200001F119434161704706484369012202FA01
:100F300001F123EA01014161704700BF0000024056
:100F40000004024000080240012818D010B1022815
:100F50002CD070470C293BD842B1012A38D11D480A
:100F6000836902FA01F11943816170471948836965
:100F70001031012202FA01F10B43836170478B1E8D
:100F8000DBB2022B24D942B1012A21D11248836954
:100F900002FA01F11943816170470F4883691031EA
:100FA000012202FA01F10B438361704742B1012A29
:100FB0000ED10A48836902FA01F119438161704731
:100FC000064883691031012202FA01F11943816157
:100FD000704700BF000002400004024000080240C9
:100FE00010B4012819D018B102282ED010BC7047B7
:100FF0000C29FBD8072907D81D48036A890002FA83
:1010000001F119430162F1E7194C606A08398B005C
:1010100002FA03F101436162E8E78B1EDBB2022BA7
:10102000E4D9072907D81348036A890002FA01F1B5
:1010300019430162DAE70F4C606AA1F108039B00D3
:1010400002FA03F101436162D0E7072908D90A488F
:10105000436A0839890002FA01F119434162C5E780
:101060000548036A890002FA01F119430162BDE7EC
:1010700000000240000402400008024010B444098D
:10108000064951F8243000F01F00012202FA00F056
:10109000184341F8240010BC704700BF00E100E095
:1010A000044B1870000240F0BF6040F40030024B67
:1010B00018607047280200200CED00E0274B1B78D9
:1010C000033B042B48D8DFE803F0030F1E2D3C0040
:1010D00000F1604000F5614090F8002342EA0112FF
:1010E000D2B280F80023704700F1604000F5614003
:1010F00090F80033120142EA411252B21A43D2B2BE
:1011000080F80023704700F1604000F5614090F8DE
:101110000033120142EA811252B21A43D2B280F86D
:101120000023704700F1604000F5614090F8003303
:10113000120142EAC11252B21A43D2B280F800231D
:10114000704700F1604000F5614090F8003343EAD9
:101150000212D2B280F80023704700BF280200209C
:10116000094B1A6822F480321A601A6842F00102B0
:101170001A60054B1B6813F0020FFAD0024A9368FD
:1011800023F003039360704700380240032822D8FD
:10119000DFE800F0020A121A0F48036B012202FA7C
:1011A00001F11943016370470B48436B012202FAB6
:1011B00001F11943416370470748036C012202FAA9
:1011C00001F11943016470470348436C012202FA9C
:1011D00001F119434164704700380240124B1A680C
:1011E00022F040021A601A6822F400621A601A683B
:1011F00022F080021A601A6842F002021A601A682D
:1012000022F001021A601A6822F0E0021A605A689D
:1012100042F004025A601A6842F004021A601A6826
:1012200042F040021A60704700300140074B9B6853
:1012300013F0020FFAD0054BD860044B9B6813F0F3
:10124000010FFAD0014BDB680B7070470030014092
:10125000024A136823F004031360704710E000E0B3
:10126000044B586000229A601A6842F001021A602A
:10127000704700BF10E000E0024B1868C0F3004068
:10128000704700BF10E000E010B1012806D07047A1
:10129000054A136843F0020313607047024A13685B
:1012A00023F002031360704710E000E010B504461D
:1012B0000120FFF7E9FF4FF4FA6000FB04F0FFF7AD
:1012C000CFFFFFF7D9FF0028FBD010BD38B505468A
:1012D0000C460020FFF7D8FF4FF4FA6000FB05F042
:1012E000FFF7BEFF014B1C6038BD00BF2C02002081
:1012F00008B5084B1B6843B1074A136823F0010384
:101300001360044B1B68984708BD044B1B68984743
:10131000FAE700BF3002002010E000E02C020020BD
:1013200038B5002404E0013B0E4A13550134E4B201
:10133000092C16D823010C4AD258002AF6D00A4BA1
:1013400003EB04131B7B012BF0D1064B1B5D002B21
:10135000E9D19047044B03EB04135A68014B1A552B
:10136000E4E738BDE00200203402002008B502495D
:101370001420FFF7ABFF08BD21130008092A12D87B
:1013800070B41401094D2C5914B1022070BC70477F
:101390002E46150174197051616005498B54012363
:1013A00023730020F2E70120704700BF34020020C1
:1013B000E00200204FF080430F229A62D8620022A0
:1013C0005A621A6842F001021A604FF080431B69AA
:1013D00013F0010FF9D04FF08042136923F001039D
:1013E0001361704708B50F4B1B78012B06D0022BF9
:1013F00008D0032B0AD0042B0ED008BD0A48FFF7F3
:10140000F1FBFAE70948FFF7EDFBF6E74BF6F86169
:101410000748FFF74DFBF0E700210846FFF748FBC0
:10142000EBE700BF1901002098DE0008987E010854
:10143000A01F000808B5FFF793FE00210846FFF73C
:10144000A5FE01210020FFF7A1FE0C210320FFF7DC
:101450009DFE00210220FFF799FE01210220FFF7E7
:1014600095FE0E210320FFF791FE0620FFF706FEF2
:101470001D20FFF703FE0620FFF712FE0022114693
:101480000620FFF71BFE002201211D20FFF716FE9C
:10149000012202210020FFF759FC00231A460221F5
:1014A0001846FFF791FC012203210020FFF74EFCB4
:1014B00000231A4603211846FFF786FC0222072163
:1014C0000020FFF743FC052207210020FFF788FDDD
:1014D000022206210020FFF739FC05220621002008
:1014E000FFF77EFD022205210020FFF72FFC0522D9
:1014F00011460020FFF774FD022204210020FFF7AF
:1015000025FC052204210020FFF76AFD1248FFF7A1
:10151000FBFB00210846FFF799FB01210020FFF7A4
:10152000C7FB00210846FFF7ABFBFFF7F9F8FFF711
:101530008FFE0020FFF7A8FEFFF750FEFFF719FB14
:10154000FFF75CFA00231A46C8210448FFF716FF8C
:10155000FFF70CFFFEE700BFB1090008E513000824
:10156000014B1868704700BF1400002030B5141EEE
:1015700005469BB0184605DA8B232B604FF0FF30F1
:101580001BB030BD4FF40273ADF80C3014BF04F142
:10159000FF332346029305934FF6FF7300910491A6
:1015A000ADF80E3002461E9B6946284600F072F8E0
:1015B000431CBCBF8B232B60002CE1D0009B00227E
:1015C0001A70DDE707B5009313460A460146034843
:1015D0000068FFF7CBFF03B05DF804FB14000020A8
:1015E0002DE9F0478E689E4282460C469046994609
:1015F00037D88A8912F4906F31D0256809696F1A3B
:101600006569022305EB450595FBF3F509F1010337
:101610003B449D4238BF1D46530530D5294600F056
:1016200079FB064650B90C23CAF80030A38943F071
:101630004003A3814FF0FF30BDE8F0873A462169AF
:1016400000F0F6FAA38923F4906343F08003A381AA
:10165000266165613E44ED1B2660A5604E464E4501
:1016600000D94E4632464146206800F0ECFAA368A5
:101670009B1BA36023681E4426600020DCE72A46EB
:1016800000F0A2FB06460028E2D12169504600F096
:10169000F3FAC8E72DE9F04F9DB0804603938B899C
:1016A0001D060C4616460FD50B696BB9402100F09C
:1016B00031FB2060206128B90C23C8F800304FF0BE
:1016C000FF30C7E0402363610023099320238DF896
:1016D000293030238DF82A304FF0010B37463D4634
:1016E00015F8013B0BB1252B3ED1B7EB060A0BD009
:1016F0005346324621464046FFF772FF013000F064
:10170000A480099B534409933B78002B00F09D80F3
:1017100000234FF0FF32CDE90523049307938DF8A2
:1017200053301A932F46052217F8011B4F4800F03B
:101730002FFA049BD0B9D90644BF20228DF853203C
:101740001A0744BF2B228DF853202A782A2A15D055
:10175000079A2F4600200A25394611F8013B303BF5
:10176000092B4DD9B8B10FE02F46B8E73F4A801A90
:101770000BFA00F0184304903D46D3E7039A111D7D
:1017800012680391002A01DB079204E0524243F001
:101790000203079204933B782E2B0CD17B782A2BE3
:1017A00033D1039B1A1D1B680392002BB8BF4FF067
:1017B000FF33023705932E4D39780322284600F077
:1017C000E7F938B14023401B03FA00F0049B0343C0
:1017D00001370493397827488DF8281006227E1C9B
:1017E00000F0D6F9002838D0234B13BB039B0733F6
:1017F00023F0070308330393099B4B4409936DE7D8
:1018000005FB023201200F46A6E7002301370593AE
:1018100019460A25384610F8012B303A092A03D90F
:10182000002BC8D00591C6E705FB0121012307461F
:10183000F0E703AB00932246104B04A94046AFF3F8
:101840000080B0F1FF3F8146D6D1A3895B063FF50A
:1018500036AF09981DB0BDE8F08F03AB0093224668
:10186000064B04A9404600F081F8EAE7981E0208FA
:101870009E1E0208A21E020800000000E1150008DA
:101880002DE9F04791461F468A680B69DDF82080F4
:101890009342B8BF1346C9F8003091F8432006467A
:1018A0000C4612B10133C9F800302368990642BFD3
:1018B000D9F800300233C9F80030256815F0060564
:1018C00007D104F1190AE368D9F800209B1AAB424A
:1018D00028DC94F843302268003318BF01239206B5
:1018E0002DD404F1430239463046C047013020D0A0
:1018F0002368E568D9F8002003F00603042B08BF2D
:10190000AD1AA36822690CBF25EAE575002593424C
:10191000C4BF9B1AED184FF000091A344D451AD177
:10192000002008E00123524639463046C0470130C6
:1019300003D14FF0FF30BDE8F0870135C3E7E11870
:101940005A1C302081F84300224494F8451082F854
:1019500043100233C5E70123224639463046C047CB
:101960000130E6D009F10109D8E700002DE9F04384
:1019700001F1430C0C46097E85B06E2917460646D8
:1019800098460C9A00F0B38022D8632936D00AD842
:10199000002900F0B980582900F0838004F1420545
:1019A00084F8421032E0642901D06929F6D1206818
:1019B0001368050603F104012AD51B681160002B8A
:1019C00003DA2D225B4284F843206F480A2239E073
:1019D000732900F09D8008D86F2920D07029DDD1AF
:1019E000236843F02003236003E0752917D078298A
:1019F000D4D1782384F84530644855E01368191D24
:101A00001B68116004F1420584F8423001238CE028
:101A10001B68116010F0400F18BF1BB2CFE71368AE
:101A20002568181D1060280601D51B6802E06806AD
:101A3000FBD51B8854486F2914BF0A2208220021B5
:101A400084F843106568A560002DC0F29580216878
:101A500021F004012160002B3DD1002D40F08E804B
:101A60006546082A0BD12368DB0708D5236962681D
:101A70009A42DEBF302305F8013C05F1FF35ACEB9F
:101A800005032361CDF800803B4603AA214630467A
:101A9000FFF7F6FE01304DD14FF0FF3005B0BDE845
:101AA000F083394884F84510136821681D1D1B68B0
:101AB00015600A060BD5CA0744BF41F0200121601A
:101AC0001BB9226822F0200222601022B7E74D06DF
:101AD00048BF9BB2EFE76546B3FBF2F102FB11335F
:101AE000C35C05F8013D0B460029F5D1B9E7136841
:101AF00025686169181D106028061B6801D51960EA
:101B000002E06A06FBD51980002323616546B9E728
:101B10001368191D11601D6862680021284600F0D5
:101B200037F808B1401B606063682361002384F8C4
:101B30004330A7E723692A4639463046C04701307B
:101B4000AAD023689B0713D4E068039B9842B8BFD0
:101B50001846A3E701234A4639463046C0470130BC
:101B60009AD00135E368039A9B1AAB42F2DCEBE7AB
:101B7000002504F11909F5E7002BACD1037884F8AE
:101B8000423004F142056CE7A91E0208BA1E0208A1
:101B900001F0FF01102A2BDB10F0070F08D010F81E
:101BA000013B013A8B422DD010F0070F42B3F6D122
:101BB000F0B441EA012141EA014122F007047FF03B
:101BC00000070023F0E80256083C85EA010586EA92
:101BD000010685FA47F5A3FA87F586FA47F6A5FACE
:101BE00087F68EB9EED1F0BC01F0FF0102F00702DA
:101BF00032B110F8013B013A83EA010313B1F8D185
:101C00000020704701387047002D06BF3546033865
:101C1000073815F0010F07D1013015F4807F02BF9E
:101C2000013015F4C03F0130F0BC0138704700BFEF
:101C300010B5431E0A44914200D110BD11F8014B6A
:101C400003F8014FF7E7884210B501EB020307D80C
:101C5000421E99420AD011F8014B02F8014FF8E7F1
:101C60008342F5D98118D21AD34200D110BD13F89E
:101C7000014D01F8014DF7E738B50546002945D07B
:101C800051F8043C0C1F002BB8BFE41800F0D2F848
:101C90001F4A1368104633B9636014602846BDE8D4
:101CA000384000F0C8B8A3420CD9216862189342AA
:101CB00004BF1A685B68636004BF52182260046046
:101CC000ECE713465A680AB1A242FAD919685818C3
:101CD000A0420BD120680144581882421960DDD11E
:101CE000106852685A6001441960D7E702D90C2382
:101CF0002B60D3E7206821188A4204BF116852681C
:101D0000626004BF091821605C60C7E738BD00BF8E
:101D1000D402002070B5CD1C25F0030508350C2D2C
:101D200038BF0C25002D064601DBA94203D90C2340
:101D30003360002070BD00F07DF8214A1468214610
:101D400091B9204C23681BB9304600F063F820603D
:101D50002946304600F05EF8431C24D10C23336042
:101D6000304600F068F8E4E70B685B1B18D40B2BD7
:101D70000FD90B60CD50CC18304600F05CF804F160
:101D80000B00231D20F00700C31AD3D05A42E250A3
:101D9000D0E78C424B6816BF636013600C46EBE7DC
:101DA0000C464968CCE7C41C24F00304A04205D0CB
:101DB000211A304600F02EF80130CFD02560DBE745
:101DC000D4020020D8020020F8B5074614460E467B
:101DD00021B91146BDE8F840FFF79CBF22B9FFF7D3
:101DE0004BFF25462846F8BD00F026F8A0420FD24A
:101DF00021463846FFF78EFF05460028F2D03146CF
:101E00002246FFF715FF31463846FFF735FFE9E771
:101E10003546E7E738B5064C0023054608462360FB
:101E2000FEF700FB431C02D1236803B12B6038BDD1
:101E3000DC0200207047704751F8043C181F002B4B
:101E4000BCBF0B58C0187047537461636B20667237
:101E5000616D653A0A000000205230203D202025A7
:101E60003038580A00000000205231203D20202543
:101E70003038580A00000000205232203D20202532
:101E80003038580A00000000205233203D20202521
:101E90003038580A0000000020523132203D202501
:101EA0003038580A00000000204C52203D202025E8
:101EB0003038580A00000000205043203D202025E3
:101EC0003038580A0000000020505352203D202591
:101ED0003038580A000000004653522F4641523A0B
:101EE0000A0000002043465352203D202025303870
:101EF000580A00002048465352203D202025303803
:101F0000580A00002044465352203D2020253038F6
:101F1000580A00002041465352203D2020253038E9
:101F2000580A0000204D4D464152203D20253038B2
:101F3000580A00002042464152203D2020253038DA
:101F4000580A00004D6973630A000000204C522FAC
:101F50004558435F52455455524E3D202530385820
:101F60000A0000005B486172644661756C745D0A2A
:101F7000000000005B4275734661756C745D0A0079
:101F80005B55736167654661756C745D0A0000009E
:101F90000000000000000000010203040607080919
:101FA000735C63907D6688A58E87B49A85988E7FD2
:101FB00065697469667A9D947E6E5F8C9063799A88
:101FC0009078A09B778A7F8278798D827368888DDC
:101FD0006E6A65869A6F7195967086A0727B7F7126
:101FE00069637E7E706E8F9D786A53698E66719D7F
:101FF000AB9398BB94949B8D8067787C6F6175924E
:10200000725F57698D6B597993817EAF9E8F9590E2
:1020100090747F867E70749E8A6B626D93836682F5
:102020009E8C779085707472817474847E74789DB0
:1020300098725E5D8887687F9F997F9CA68E938744
:102040008674677C7D72708E92755B4D6F78586375
:102050008D97788FA38F958B93937C8489736583F9
:102060008C7B6F647F97706B949F82839C8B847D45
:102070007F836A6C7E7A6C889E7C60495E8E786E07
:102080009BB19281A59C8C817F8A776E797E6B79DA
:1020900097896B5357877A4965938C74A4AD9D9A41
:1020A00080949079808D736F93927A5F5477936365
:1020B0006B9B916E768B848874818F7672807D6F36
:1020C00083937C645863937B6090A990829F9F9DCB
:1020D000886A8076677A8C857F968D6C60557B8563
:1020E0005568979D808E989BA1778FA17F70757B97
:1020F00071899685735A6B906F5B7A928173928B1C
:102100009575618C827076887C808376695761943E
:10211000997B8698988390909E8D5E78897C707963
:10212000797C8A807F6C5369725D69879A96938DFA
:1021300097A37D788B8D7D7E82828E80797868767C
:1021400089787177827E787C859E8D7F8186837F7A
:10215000848287837776747B91867F838284847C74
:102160006D7871697E7F8C918E898B9184716B699A
:1021700061746C6A6B727F7C7D818586868A8F8DA7
:102180008D90939DA5958C8C847A8C82656A6D6AFE
:1021900062677E7B6F7275818E93958D787D8C9F43
:1021A000AD989A9B807F757A6F556F7B605C6A7182
:1021B0007B8C8E837F7369748C87859191908C92D0
:1021C000846576775E5D63696F81868A8676768DB3
:1021D000A4A09B9E9B9387918E6E787B615A595DDC
:1021E0005B657473817A717896A5A2ABACAA9A9E4E
:1021F000977976816F696B77706776717263605ECD
:102200006D77788DA8A896A8B6A69CAA9E806A73BA
:102210006965756B71654D526A706C797E817E93CC
:102220009E8F8B91A1847079736672656C69515F22
:102230006E89785E768D6B5D756C7B95ABB3888CA3
:102240008897C4C4C1C59257515262686357463ECD
:10225000616F5659718B776E67595C4E504C493B94
:102260003F4E42555E7469617C84B4B0AB927E9DF2
:10227000B9AF9A9D9FAFAFC2B5C7CFC5C0C5AA9031
:102280009E8C7B6371917B54677B8D959CB4C0B1B0
:10229000A1ABADA9909CAB7C5F779A7B7291959036
:1022A000838487999A8F8C8884708186574D547562
:1022B000765B4E698D88978DAFAA889CA6A88D9A6B
:1022C000937D757D7761504D768368547A8F7C6FEE
:1022D0007079674E7988695A53444F686D8F815C75
:1022E0003E5E6D454572835B546D826D4575A08D74
:1022F000817A8E857C7DADA35A425A6A3F588A8482
:1023000075759DB0989DB2D0BFACBFCFBAB6C4C9E9
:10231000B78B706E8C80879CA7988EA0A2A79C9A82
:10232000AE916A94B29293B3B6B29D92797F945E65
:10233000586A6B4F4E67606E5E5F69678A918684EC
:1023400092807F94644955685E3E565A5159709602
:10235000929C82889971778A704D5C616150524E6F
:10236000546B635C7189818A989A80797E91817AB5
:10237000947D576978697D88836C7C8A736D838DC1
:102380008191917D848186999A98A09D868D909562
:10239000AA917D797C8976809DB2A5AED0C5C4B660
:1023A000C1BD8C89987659797D626E69585A71944D
:1023B000889AB2A29CAFC3BBC1AB9893757B7A716C
:1023C0006E7C827B85795D4F636E493F55504E58D8
:1023D00075745E506D7748698B6657786158614DAA
:1023E00041506B5D485F836D7C9D937D7F7B786FF3
:1023F000638075545D786472817A797A8983889B69
:10240000B0A99E9891897A708B8575918C718BA1FA
:1024100087A2A681656E86685C858E646F8F7F79E2
:102420008299A894A2BFA587A8B2ADB3A18388A2C0
:102430009C899CA48F909A968E9D858780697F91B8
:102440007375B3A2909C988C8FA7AB918F957D727A
:10245000807F756F56635E4A5F58526C785664761B
:1024600055486376493A54593E536E5E585B6272E2
:10247000665F9388697A8A7B8A8365676B6A4C5446
:102480006E7869828877817D7C7E7D89936D658B8E
:102490008C839B9177728980688394847789847612
:1024A000786F808674777369788C83978D72647C7B
:1024B0008B65749EA1849FAEA7A9B5C2CEB2A5C5F7
:1024C000BCA5B1BEA0927F7154777A57687E8275A1
:1024D00097A0A4B1AFB2A8909B9E838CA38981786A
:1024E000655A70936964847D626272767D6C5D6A00
:1024F0005C59636E717C7974775B4C4C74613C59A8
:1025000071544E7C8C89727A969A8999A8897B80BD
:102510006D6053433653663A4767767095B2A09A1A
:102520008C9E998E8B8D7E6A7366646C64545C8815
:10253000775275988C7E8C807B756B7D887E7583D9
:1025400084878E98A59D8272A0AA7076B0BF979D51
:10255000AFB8AEA2C0C5BA9F9F99898A89897A5FB0
:102560004A5D8E6C63A6C2A38EBABBB6ADADA59D07
:102570008F6D6F717B727571664C447E8865779242
:10258000816C787C777764596970564659767365A3
:10259000727555365D926B546D8072767F8A9A7B28
:1025A000736A7D725B64717259605949324C8F79DC
:1025B00052799B9498B2AEABA7907E7C907867637B
:1025C0006C7E766C62595B848363748B8A889F947B
:1025D0008092917A75959C8C8495A9A3A5A2A395C8
:1025E0008FACA0868EA6A9A19E879395888596AB71
:1025F0009283839291A2AE906D5A879F7C84A7B0FC
:10260000A2A09E8EA1A08D787F84736E60667A8E64
:102610006F4B4861816D6172807C838358556D6C0E
:102620004E45595A58516278868B77675165949117
:10263000724F586A716C4F676D70635F6868868F00
:10264000856C7E978467557C978279707D89A19D82
:10265000828281918A7E686673656063726C626152
:10266000667E818990868A9AB4A4948F878C98AB71
:10267000AD998FA2B0B2B6B1A4847994928A8486BF
:1026800089979D91968F99ABBCB69A979CA3A7AE5C
:10269000A5836B545E75788177767F99A79893862A
:1026A000848389876F6151576B7C70544C3E4765BA
:1026B0007472665F5E6C7B80897866667F92827FCB
:1026C00079787A83806B5241495661625149455805
:1026D0008A94907F818D9EB5B4A888787681817424
:1026E0005E3E3F5C707C726567718790998D7865FE
:1026F000718F918B7864627994998D746E7685A2CE
:10270000B3B2988695A6B2B3AAA09A9CA2B0A89C90
:102710009A989C9D9F846964728B9C9B938D939ED9
:10272000B1C8BCAB9A958E9293877E71717A7053C3
:102730005A67747A858D80727B868A968273645814
:102740005F6769625D5C5E61656B68676068827C1B
:10275000737369666C777A6D6B6E716F727167599E
:102760005C6D6B6259585D6A7B8F8E8B919596A0DC
:10277000A29C98989791967C696E74727D83725F23
:10278000647B95A39D8E7E848697A89984868B878B
:1027900092979795939599A184747A777A8B8E7195
:1027A000677283919D9C9780767F92A087867973CC
:1027B00071807B554C556069777279819197A39BA5
:1027C0008876687878898B7766758CA89E7A5A4F58
:1027D0005F657B7B664F607A7F8B795F68838A99C0
:1027E0008D6C71889496896469455E8D8487727258
:1027F000778F9996816B6F87866D5F564F596F6C97
:1028000063625D5D799CAFA9A5969BC7CDBBBFBE3A
:10281000B3BBC2B5AFA199A1A7A7A69E8B777FA096
:102820008D796E5C687F86695E5F60606565515416
:1028300059626668635F655648454F5D747D87964B
:10284000A2ADAEB3B3ACA4ACA7959DA09F9C969D42
:10285000978D807B748A9E909A9B98A4AA92787F89
:10286000776563656A65676E75695E6F735E473B22
:102870004453524D4A494C6567545B646D68625CD1
:10288000535F5651525A5E636B5C4F4E7989736742
:102890006D7C90A39C858CA0927E6B6A76918E86CF
:1028A0008D9BAEB4BFA392909DA486839FB5B2B218
:1028B000B1ACB7C7C4B2B1BDBFBBB4ABB4BEB99FB6
:1028C000938B80747C9D887B8D9D999DACA6ACB0CC
:1028D00096767B838372757D7A787069707A685199
:1028E0004565542E394F5D5F5C515D6767514D5BA7
:1028F0005B4B3C3F4E564C4C46574C3D3D4C5D452A
:10290000485D70747D797B817C664E636E6C625A23
:102910006E81787278888C7B6D72938F7A8CB5BD5E
:10292000A6AFB8B1C1CBBBB1C6C5A69AABBBB9BA4D
:10293000BCBCB9AC9992A1BEAA8BA4C2B0A5BAC2C4
:10294000BDBAB6A19BA8AA9197ACA39C9AAFACA51F
:102950008C6F6D6D7F65567E8D6D697A766A716C50
:102960005F645E523E4A5B6058565B564C373C3261
:1029700041553C395253373F61695957554E4C4F79
:1029800052454B6154475A675D534D473C4E5D3C41
:10299000417778576C89867C82847B777E706F83E1
:1029A0008B867C928B7F8788736F989C7182BDB178
:1029B0009BB7CCC9BBBFBFBABAB6ADA8B3A5A9BABD
:1029C000C1BAB9BAA79391B6B18AA2CBB19DB4C826
:1029D000C1B5B4B8B7A4999D9EA3A8A6ADA69A9C6C
:1029E00095837472978F5F89B08C7D8D998C717C83
:1029F0007B6E6666655F5D5A6061655A5A564932FC
:102A0000446B4A2F59693F44617162535F62564F6C
:102A10004F5149424C5859545C6154453E4F6446AD
:102A20003C6E84615F79867364706D5E55666C641C
:102A30006B7B7A7B7D797A665B5571926A61929D38
:102A4000808EAEB49B9BAEA5A1A6ABA6A19F9D9C7C
:102A5000A4ACB3B4A39690A7BC998EBFBA9BADBBF0
:102A6000BDB4B6BAB4AEA6A4A6ACACB7BCB5AFB054
:102A7000AB99887D969F7C84B6AD90A3B5B19B93AE
:102A80008D837C85928B80777F817E7E847B635A69
:102A90005A767F555A89745365716C5E6E75645AA7
:102AA0005A605F524D615E58595F57453F466256C6
:102AB000364E71574F717F6D58696C5449555D584A
:102AC0005A606C645E6C7A6648404F6F604B768AE1
:102AD00064658C90797188877B8392928382939AC4
:102AE0008A7E848F83747B84998776A4AB8391BA22
:102AF000B7A2ACB9A798A1AEA49EA0A3A9A2AEB656
:102B0000AC958E878DA08484B2A88FACBEAEA2B3E4
:102B1000B0958E9CA28E8A989A918D9896847575A0
:102B2000748593727EA48978959A8275918A737B55
:102B300087897574807A63657275675F594C6870B0
:102B40004C63845D547A7D6A717C6C666864605401
:102B5000576A685D626662605C51455F5A37597CAE
:102B60005951747E73727A6E6B6D7B7E71757D7751
:102B70006B79807C706C5958826C5088A3757C96F8
:102B80008D84949E8C8A8B9390868EA1988B96933D
:102B9000928D84747D9F7F699DA68197B0A397A530
:102BA000AC9D9799A7A29193A08E839DA2958B86A9
:102BB0007682A58072A5A27F90A793899B9F909013
:102BC00090978B7891A48F838D88827F79616885B7
:102BD000606098876789937C7C8F8D797876828115
:102BE000717A84716C847A626465525A75524B7A38
:102BF0006F566F76636E7B78727974827E69737DAF
:102C00006E6579675A68674E597B534F8079657B4B
:102C1000816E788988837D738388757B8977768CCC
:102C200079707A6D4F69865A5A8A796B9499828441
:102C3000949195978C948F7D8298837B8D7B7486FD
:102C40007F6484996A7CAC8F83A59B8792A19B98B3
:102C5000968B9E9B8997A5918BA0938A908369867A
:102C6000926D8BAB867CA3A393A0AC9A93968C9A1F
:102C70009178899D8388987E7179756D94875D823E
:102C80008E68749A856D7D867C84867F887A758F40
:102C90008D71787C626475575B805A5279715C7B68
:102CA000946D6E8B7E797C7372726B757E6B677DB3
:102CB0007D6E6D72566981555D816A5D7A7B6D7836
:102CC0008778727778847F767B877976877A6A6C63
:102CD0005D52796F5376826278988179868D7F7E96
:102CE000828588797A8C8D858C897E797B6A7890CB
:102CF0006F7B97877E9D9F8B97A8A0959D969FA899
:102D00009C999F908D979087897D6D8B837DA3A4DF
:102D10008B95A89592A6A091A09F93978C84949848
:102D20008C9794766A736F7E8C7282917D80948B7F
:102D30007C899187818582878375737A726C7C71B7
:102D4000636C636B786370867E6D757B6C6B7F796B
:102D5000708173635D5C67757063615C414F595C42
:102D6000706276817569818788999A8154667978CD
:102D7000716A685D48609277555D656D635C7F85BB
:102D8000708FA08A7B868F706A7585735768817C87
:102D900066899174787F978072ABB8979BB8A68547
:102DA0009FAA8D7B707A7E7D87A6A08A978F938E4F
:102DB000A8BB867C948A7F9FC0AC8C9A9A797490C9
:102DC0009A7A83A6AC8997B1908C99AC8C628194E5
:102DD0007D84ABA484899B96827A8B77606B8372A7
:102DE0006E9D967A75937C5A829F7B6076745C6840
:102DF000817E7779856A5F738A73738E6F4C517A9F
:102E00005C507470484A69695E6D7B82706D908118
:102E100076818B6C6E6D503B617E515B796C5C7E14
:102E200085746D7B847C6D858A77829C8F72786FC8
:102E3000544C7F64496475717996968B8B7C7D8741
:102E40008A9797959CA5878F8D7C71827D465C873C
:102E50007B7295A19B9EA3B1B7A1B1AE96959F8DB4
:102E60008B917E6572956E73A6A67E9BB59A91A195
:102E7000AAA6A0B9B896858F918B96866D61856953
:102E80005C8D96848A99877B868A9397A1A68E8586
:102E90008E94827B6D553B5D624F6A837467808D33
:102EA000817A848B8174827D727389766B685134E8
:102EB000516D3D5274705F7B8F747E9091887075F8
:102EC00074635E6C65696151466087625C827D50A7
:102ED0006D8678839084877C7B8C81788582725F15
:102EE000545A53887B65878E73759A9896989297F3
:102EF0008D828E907E808975697174588794697E01
:102F0000AFA08DB7C3A99F9F9F978D979D96828AEB
:102F10008386838A6B84A4697399A08AA7C6B2A3A7
:102F2000A9A2978E8F8C8A6C7784837C7D7A699630
:102F3000725A7F9F8C81A49F8496999D92898F78E5
:102F4000666681706C6B7247627A50689791698A85
:102F50008E767481837B747869666B767373736E17
:102F600051437C63517F9D7B6D8882697A847D703B
:102F70005F63676A6F857E7A6B583E5D825F5E89AC
:102F80008F69708B807D877571696B7176758589A6
:102F90007D7E777160847F5C76987F6F969F8A9044
:102FA0008E7E81797F7B8584877B7C85878881B1D4
:102FB0009B7B8C998D85A1A088928C918E8A999209
:102FC000917D8C8B91978D8384A78B6C91AA8D7F3B
:102FD0009292828B86929C8E9086837F8B8F8A8D35
:102FE00086736D7E746A8897827A918D757B838FE4
:102FF00082707C847778888B897F76575B7E6B6361
:1030000080897272877E7F897D726A6C757B788415
:10301000988C84776B585D76635B6D7C6563838485
:103020008B7F7387847C7983837C81767A73675AFC
:10303000667D5F607774707A9283777D818C8A92E7
:1030400096917F6F7C77757770716E7C75687A86E4
:1030500080767E817F8484939F9E9C908C87877EE0
:10306000808A786F74817F7D8B8A79737D8B868F60
:10307000A2A29D8E8E8B8C808A91837B69686F79EA
:10308000817D7B8A7C7D8897949394898A7D887DD5
:103090007A868B858884787378766B7570746F8286
:1030A0008D9A968E8C7F837F828993838384878396
:1030B0007A74817758676D7375909A8B9291878B2C
:1030C0008F918F8077838A808E846E696C6E696B36
:1030D000818973768B85787583989085868D7C77CA
:1030E0008A86807F73645F666F746D7C836A6D68A7
:1030F000747E818F908C949A8E928F8677625968B5
:1031000063697D717270746F788B8D86808B9295F8
:103110008D909D8D797974697183796F78806D6AEE
:1031200070708185818B9B879299908E927F757C40
:103130006D727A827A857C68707E7E8985828885C8
:10314000888F9D928580716E7D737A798989767C6E
:103150006E777972757B898F8896A0A09484898018
:10316000857D847B72847378717880788479798D99
:103170008086999C94888A737A7875897B8F7B7214
:10318000716A7C70767A7280797A898B907C8E876E
:10319000857C838E828B807C6A787C6F836F6B7E6C
:1031A00063877C938C7491738B80848F87938B82DD
:1031B00088777A7F8C8B7B89777D7D899B74747E01
:1031C0006E76707E7F7283798388728C8285888226
:1031D0008D788B81938A7B886579727385797F730B
:1031E0007B746C7B71867773847E827D8C8B818906
:1031F0007C7A7579837D856F77866E7A888480780E
:10320000818B7D8C8E918B788473717079807B81BA
:103210007579797280888F87868D87878E9A8B865D
:1032200085867F767E797F80718173737B78877BDB
:103230007E7080898694908A7F7F7B7D8082898161
:10324000757A7D716F7D7F7B7D7D77808288898FA8
:103250008A8289767A79867D717C7E7B6D7A8379A4
:103260008485818287948C908B947A6F7D787B7F24
:10327000817072736A73877A83817A80868B808586
:103280008084837581857F8B8A9084918E879A95BF
:10329000938880808B86897F716D75706D6E6E806E
:1032A0006D6D746F5C6C6C6579777E737E8C919CB0
:1032B00097A19D919B969091918A8C84827E808526
:1032C0008386888984878F95857F7C6E646F6D7512
:1032D00078706F79756C857D857B7E7869766A7B81
:1032E0006F7177656E5C67766A72737A847C877EAD
:1032F000796067886E7F8FA2A6A1978788757D9871
:1033000098969B96827375706B615E5E524C636596
:10331000716869767679535655414E616E7169725E
:1033200082A1978A9389808EB5B99C8397ADABB003
:10333000A97E86979EA0A4B1A08F77897B7D7C7F94
:103340008C93978B9093A596A09EAAAEAC9F98A5C0
:1033500090A49383846E7A82748D8A8988939C74F6
:103360007677847C7F7D748C81857B6E867580709A
:10337000658270705C7B958795868EA1A3939087FC
:10338000606A53465457554D5F6D7F7B86918069C7
:10339000726A59555D625671766B616678826D69A5
:1033A000625E797D6B6C6D746F656B5B65556E7578
:1033B0007A8D809A97A5A07D79718C9E92A5AB9805
:1033C0008790838597939093988D8B7C7A8A939F2F
:1033D0009D9FA09EA8BDC5B6C2B6A69DA0A78E847F
:1033E00084948C849084728683837C7E726B848CBC
:1033F0009278766E807976767A7883866A7A727930
:1034000068646B5E5459576A697A8B75867F888DBC
:1034100084786460524F44475A495053556D7676CC
:10342000767F8A777385747E87888472746A6C78F5
:103430007A826E5D686D75737E867D82857A8087FF
:10344000969C9CB6A39DAAA3B9B29DAE989FA29E3E
:10345000A38F8E8B7F87968A908A9190897D7A83BD
:1034600092928F99999C9CA2A3B2AAA280778C9BDE
:1034700088888D8E8D7F7E5B65655C66676F7C64FA
:1034800078819E9C74836D6E62616163666A586028
:103490005C56574B595A655F5E6B746E7766636115
:1034A0006667616D646459556D6A5E766A76798186
:1034B0007B768F8E858C8D93948A929AA89CA38F0D
:1034C000838A7B706C626060606D767F7A7A7D8EB5
:1034D0008284818C93999893A0939A939D9C9C9EAF
:1034E0009399AA9FA5A598988E847B6D79887997E2
:1034F000A3A7A8A8AFB5B9B9AAA7A1A4A492979069
:103500008E7B7F8D8F817E7B7C847F7972717477D7
:103510006D71757F7E84828B81665A535D4E4A48F9
:1035200040393D38353B545C5663676B71798796FB
:10353000948F7B6B6B6B6C68555C5B4F5D6A6861ED
:103540007075768A958F958C9BB09E8C9CA3919577
:1035500096836B6C676364635D615C5D696E79899A
:103560008A8A969CA5A6A8A2ADACA49D8F8A9390AA
:103570008C878F9982858996948F867682A2A3AA5A
:10358000B6A4ACBBAEA8AE9A9FA8A390888B887D4A
:10359000878E857B7780889087958B7F8891786CE4
:1035A00075798489847B85796E685D4D4D51505263
:1035B0005F686B75796D778A7A786D65717E7576DF
:1035C0006D5E6062605C56586D7782787270777954
:1035D0007D6D6066707B8F93828D8E7C697279823F
:1035E0007771726F7A8C836F687082756E6E748279
:1035F00095929280666B8B978A7F6F81A1B0AAA803
:103600009CA4ABAFA5948D97AEB2AB967B696D854C
:10361000A6A8998E93ACBCBCB9A7999E9F918B84A8
:103620006D7C99A18163607387959F896D758C9678
:10363000977C6F6C768589897271849B8E65514900
:1036400050687368594F566E879A82615D6D7E83AC
:10365000826B615F6A695242454F5B717C7E716B20
:1036600072848A8D82696F7A7B787E90816C6B65BB
:103670005F6B7E86837A71747F837F726B5E6778FF
:1036800085807C918C88807E6E6C818B919C928DE4
:10369000909CA99A9085919096A2AAAAA3A19180A4
:1036A0007D848D959EA195999BA6AEAC9E8E8A85B4
:1036B000898F909FA29585756A62828995A2929062
:1036C000928E979894897B72798478888F7C6264D3
:1036D000584A5E737A7571767573878371656B6509
:1036E0005A616B74736F66564A4558667589747073
:1036F0006D6C7D8880726D625B7173758E8A7A6A7B
:1037000064556878838D7876797A89928B8E8779FB
:103710007588868997917A6B64566074919B9090B6
:1037200095899DADA79B998E7C878D95A7AA95902D
:103730007C72859CB1BDAEA29F909EB1B0A39C8CC3
:10374000717B888FA4A99F8673697A8694AC9D87C4
:10375000837B7D8B8D999687747E7E799199816923
:103760005947495770867D6A726A6A7C817D7A7191
:1037700063615E627B8878684E3F41576F8C866FCD
:103780006F67677C847C7B6A5D585C5C79807B7C3E
:1037900065555C6D718E9A83796F647A7D848F8AAA
:1037A0006F697970859C96846652585F6A859B81A3
:1037B000808074838D98A1A38B8D968896B8BCB3B6
:1037C0009B857F8899ACC1B0ACA3919DACA9A9A8F9
:1037D000937F8584889A9B9F8E7166797B87ACA343
:1037E000958F767B888C929E92757F746B8189868B
:1037F0007758485460698E927F836A6873747379CE
:1038000068535F60556D8482775A4A4B5F6D8F8F26
:10381000797A675968736C7175605760586C7E81EE
:103820008476544A5E6478968B857F69798788911F
:103830009F8A747A6F70898781704D4656606C9646
:10384000998D8B7C7A8C949DA097868C8376A1AB86
:10385000ADA5928081949EB6BEA9AF9D879FA19D84
:1038600097998A8687798FA09FA6906E676B7792CB
:10387000AF9A938D7287A5A8AEAE998B8E7873861A
:103880007C726352484D536A9191838A7369767C46
:103890008782746066555174786E6B5F53535E6CAB
:1038A0008389747F6F54626265787465625A51715E
:1038B000807C8776574B5157698D817984667A81F0
:1038C0007F96968F838C7E73908F9192735C455216
:1038D0006783907C8978748C83959E92979392806D
:1038E0009CA399B7A5A1897993A0BCB4B3A97C8CFA
:1038F000878FA796908387777C9A93A6A38C8265FF
:1039000077819BAB93A286798385ACA99D9D948C8E
:1039100074898B808D7D73484460688D857F865E59
:10392000666B80937F8F89816E6F866C7A7F634F21
:10393000395549597C69775A4F615E7F7E746D5E57
:1039400066536D736B7E665D403E4D578D8A9395D1
:1039500064787C8C9A8B98827964658574909C8459
:103960006C556B657D8F849B75687E7B9195A69E5B
:1039700089948EA9A0A7CAB0A086828793C0ACA85C
:103980009A74878EA1A7A6AE9792868D947EA19AEF
:10399000786555646397AFA3B8938B9A99A5999E60
:1039A0008B786E5D7B677593706048515B6793950C
:1039B0009B886B7F79818F948C686E686C797B9C17
:1039C000867261474B4B6E73656B4E5B6A657C8894
:1039D000937C7574646E5E757957573D3C4C618578
:1039E000768479637F7C88909D947C857678767DDB
:1039F0009E85765E4A6268969E98A07F8D8D90A384
:103A0000A1A38F98948C9A9DBDB8A4A07C807E8F32
:103A1000AE979C878991849FA19F8F8D906F7380B3
:103A2000828B7778645B696B9D9A969277847D82AE
:103A3000939B8F747C67597071806D5C4F3C5157BC
:103A40007D9588917A83867F989794828482677F18
:103A5000888F8A706C4F4F4E65866E79757181784C
:103A60008C98968C85895F677477896B6355535DF5
:103A7000679B9887877B8C8596ABA8A7949E8C853F
:103A80009B95A38F7867576C7094A396977F8B8BC9
:103A900089A7A6A6939D9884A6A2B1A78E866B70CF
:103AA0006F869D8E94847F897F989E9C857D81649E
:103AB00079838B876A665357657C9E8D8A7F717C7C
:103AC000768C8D8C80656B54626D6D7B5D52434648
:103AD000566A8E86858171807584978C887481681A
:103AE0006F8B838C74614C3F4B5B7D7E7679626F0C
:103AF000707A8F8B876A6B5B5A7B7A86745C5750BF
:103B00005F7194998C907C82898EA5A19C86868019
:103B1000779999A2957468636E799BA68F8F7D8043
:103B20008883A0A3A394959282A1A7B1AF8E7D6F45
:103B30006F7B96AA98947B7B8D809398947B757805
:103B40006479838688675253596488A18D8D756B1B
:103B50008382909897796367576E7B83875F4D4E1A
:103B60005A67849A8D917B6E7D6D7D8C8D7B696F9C
:103B70006178899296745A54646C7E9488856B5CE3
:103B8000756C7A8C8F7A65675D6F7E8688684F4723
:103B900052607E978C9275678281909F9A8A7C7A18
:103BA0007885899296776264757B9AB0A5A78E7A9C
:103BB000888A94A5A38D7D7C7F9298A3A386757532
:103BC0008597B1B2AAAF94808988819497837568EC
:103BD0006B81888F8B6854556A809A978A8F7A7028
:103BE00078807A858C877E65697C7B828465524E7D
:103BF0005C778E9190927A6F77817A7E807D7F6CF0
:103C0000778C88827F6A5A5C69879E99928B7972D9
:103C1000747F7C7C7172725A6A82837C725F58599D
:103C20005D79938C8B877B76758282857D838D749D
:103C30008194958D80716A73738EABA19B938E89ED
:103C4000808D928F7D81907884999F988079797A00
:103C50007E9DB9B0AE9F91968F90908E7B75857743
:103C60007E8C928C6E5E636A68809B9492887D8065
:103C70007D828583747480727A8689896C58585FD6
:103C800062718E8C897F747E78777E826E647C749C
:103C90007587908E715C5D696B81A09C9A8E7D8228
:103CA000818081807462706A6F83889177595666CB
:103CB000657191918E8C797B7E7B7F817B697E7E25
:103CC0007E90969E866B5F6B767998A39898858692
:103CD0008F868A8C8A7178857D8E99A59C7A666E8E
:103CE000787D9BB1ABAA968D9C95929290797787BF
:103CF0007A858F96937B65596867769795989079C2
:103D0000868381827E7B6F817D7C878E9B80635BD7
:103D10005B5C65878E868A75778077817F74666F36
:103D20007972808D948A6F5D5D64657D9B948F84CC
:103D30007D857B7D807C726F7E746F888F8D8067C0
:103D40005B595760818F8B8D80827F798A877F7ED8
:103D5000868676879799947A6F655D677B938F8D5A
:103D60008B838981858D7F797F8B7F7992949992DE
:103D7000817E69687890A4979B988B8A858E877AD4
:103D800081837F74808A888C7D776A5862738C8E79
:103D90008B98867C7F858779868F8880808C8988C0
:103DA000857D745856616B82828E8E7D7C7E857A8D
:103DB000788A8578787F837D7F847B6C6368708563
:103DC0008D949E897F7C75717480877C72737A7CF8
:103DD00077817D6D5C58626C7A85968F80827B726C
:103DE000696E868E88878B8D858A8F83736D706FE1
:103DF0007B8093A0908E8D827D8B9EA0958B8381FE
:103E00007B7E8D8C8175767A797D8A9D9895978752
:103E10007D838C928E8B8B878583877E72716F7387
:103E20006A6073908E8A8B6F5856657E7E8083831E
:103E300080707279787F796B6C6489998DA2A5A561
:103E40009B9096A29E927B6362605B514543464E77
:103E5000504A536480797F979193939F9F99A29F33
:103E6000A6A9A3B4B5A69D928F87878C958E7E8BCD
:103E7000846D69787E6E6B6364594D564A36373F60
:103E80003A373E4A5A69585F654F55606D788A9057
:103E900094A195A1B1A3A6A6ACB4C3CACACFBEBF14
:103EA000C3B8B6BCC0BBB6B5AEA996929B877F809F
:103EB0007D7E87929798898692878A88888E888463
:103EC000747B6B6670554A433A333B3D44524335ED
:103ED0003E3B343A4546494C4B5A56586250474847
:103EE0004C576C7882988E8889807A7E817F847E18
:103EF000819394939F9284868FA2B2B5B7C0B5A8E0
:103F0000AFAAB0BBC3C8C7BFBFC0B9B5B0A6938E78
:103F100091A1A59EA2ABA49A989798939092938111
:103F2000858C80767F7E6B615E676F706F73726D5C
:103F3000686060625F5E5C54565D594F52544A40FF
:103F40004157625C5958564E53585D6061676E71B7
:103F50007681827D757E7F71676E7875757B8478DA
:103F60006E686B72737B868C8A94988C828B969425
:103F7000949AA5A7AAA6AFAFA7A7AAB5B0A8A5A4CB
:103F80009A9CA29F9C9CA39C93949C9494969CA185
:103F90009FA3A2A6A5A9ABB1AEABAFAEA8A19E95BB
:103FA000867D8789817E7A7A757169686A696D6EA6
:103FB0006D6566676160605D575053575D5D545530
:103FC0004F494247484344444B474548423A3A3EAA
:103FD0003A373B40404C4E4F54575B5C62616A69D4
:103FE0006C6E6F787B747983807B73716C70768074
:103FF0007E787A7B8086939A9EA1A2ADB5ADA9B159
:10400000B0ADADB4B8C2C5BFC4C1BAB2B1A9A5A95B
:10401000A7A8A2A7B3ABA7ABA8A2A3ABABAAACA817
:10402000A3A1A9A39C9C9DA1A4ABA1999C988F90AE
:10403000948D807E7E7E8582807D7C7D7B77767C84
:104040007B78716C6F6B67686A6B635B59586465EA
:10405000625A5B5F5959595A59615A52585B4E45D9
:1040600049454040443F464E51505455504E4C5A9D
:1040700060666A67686E70696C716D6365636264BF
:10408000646462666567646C7B888C81858E887EDB
:10409000868C8D8F959CA4AAABADA6AEAEABA6A226
:1040A000A8A2A7A4A3A5ABA79DA5ADA9A9ACA5AAA5
:1040B000ACAEA9ACB0AEB1ABB2B6B7B3B4BFBCB2E4
:1040C000ACAAA1979A958D9191928C898C847E7BD4
:1040D00083888A8983838386818289817C8383869E
:1040E000847E756F78746D656670716F69635F5CEF
:1040F0005A524F4F4C54595F62605C525B67645D2B
:104100005C62626261666A68676468635A595B5799
:104110005558544D4D57555A5D656D6C70747B7B89
:10412000756F6C6E6C70777D8785887E79817D7BFD
:10413000797E817F7D7E878F8E8C8C8A8A8E9AA3F2
:10414000A6A7A399909598989899A9AAA6A5A7AC6F
:10415000A69E9E9F96929BA6A2A3A39B9397A19E89
:104160009C9A9E9F9A96969A9895969B9488888EEC
:104170009398979386828989888988908E89898A7D
:104180008A7D75736E676774797D7D766D656B6CFE
:10419000696C6C71726C6F787E776B6C68635D654F
:1041A0006B6465605B505159585A626B6E6D6B69F8
:1041B0006B675C60655D5C666D6F7374736C6F7765
:1041C0007671717174726E727378757478726C70C6
:1041D0007D7E81868278747D817F828A91999A9E84
:1041E000A2A49590938B8885908E8F908C8D898DCD
:1041F00091908C8F9499999CA1A499909898989853
:10420000A39E959B98968F9293918F919698969056
:104210008D8D85797F83807F898E8B8F8C8C878332
:104220008C8B8481828385878D93958784827D7929
:10423000767E7874696261636970726B6C75808177
:10424000858783726D706D6B6E726A66686767676B
:104250006A6A64635E6166686C6F6F6765686C6FDD
:1042600070787B7B78766D65666B6D6D7272777634
:104270007B7E838176737472767B7C7B7C7A727AA8
:104280007D81807C79747A838C9298958B87898BD9
:104290008D91918C8B8884888C9297918E90949636
:1042A000989B9890888A8D87898F90959A9A958FF8
:1042B0009191908B898C8B8B929D9E9F9A959590D6
:1042C0008F92959292898177767E84847C807F829A
:1042D000878F92948C807E7D7B7E8282807E7A79AD
:1042E0007C83837F7A74736F6D6D78797470737368
:1042F0006B7073726F716D666162696765686D6F0F
:104300006E70777C7A7B79726662656B71706F69AB
:10431000645D666B66616264656E7C827D81817EB0
:104320007775797E807D7E77756E778483807E7EDB
:104330007A797C8480848489867C8383888691963C
:10434000958A858E8B908F93938C8C9796969EA34F
:104350009B8C8D89918D8D88818178848B8E9193B2
:10436000949695A0A6A2A3A29B8A86868B8A8B95FB
:1043700091928A8A8D898583837F7C7F8382868FD1
:10438000988D84827E848584817D716A787E7D802B
:104390008077717377777985857C706865696D72D0
:1043A000706C6759616568696666676771746E7578
:1043B00077786B65616164646663646167706F6F71
:1043C00070696B6E747D7E8387837A716E6E74798B
:1043D0007F847D71707879777E7C7374808A878E14
:1043E0009BA09A928E8A8E8A898D80727682858829
:1043F0008B8A89888C9CA19BA2A299908C8E979C79
:104400009DA39C948E91988F8E8C848482878987BB
:104410008C9699948B8A92918D979C908B90979083
:104420008E908F867F859396939B978D807A7C7DE7
:1044300079828376716C7A828284847D74767E82BE
:104440007D81827D6E656A67666D6B646162646C96
:104450006E676D7065627478747C796C5C565756C3
:104460005A5F646259565C686E7075726B697482CB
:1044700082888F8C807172757071746D645D5B68F9
:104480006F6D6F7776707B858A8F9C9D928C8D8FF8
:104490008D92918E887F797F847E7F8884777985DD
:1044A00082819295938E8E8E8E959D9F9F9B9294E6
:1044B00097928E9594878792958F949C96908685F7
:1044C00088848B9697949092A0A0A0A6A3998B8B9A
:1044D00090878B928F89837E7772768085858082A4
:1044E000858B8A93978C8485867E828080786D6C9C
:1044F0006962666B6E6F6864686F6A707A786970FB
:104500007E7F7E818B83796D65625E5D67645A52C2
:10451000555F5A5E676863646C767E858C8D827F9A
:104520007D7676797A76746B6671706B7674656673
:10453000727373747C7E7F84858B8C8C9198948845
:104540008486827C81847771757E82808A8B8B8958
:104550008A8F8C8D959B9A918A8D918A8E968E8961
:104560008A8D8C8D8E92938D8A888E8B8A93928978
:10457000878D91979EAAAA9D9497928A8F918B82FC
:10458000807C7C7A79807F78767B8388909D978EFB
:10459000868A9292918F8E857D76736E656567644B
:1045A00059575F666A70736D6A707B85878B8A7FE7
:1045B0007E7B7773696669656365646260666C6C4F
:1045C00064686C6E6E6F79727378787878787982B7
:1045D000817575726D76817E75706E6D7376797C7E
:1045E000797676787B82888B867F81868B8D8F9299
:1045F000857E7D78777D827B7B7A798181828790C9
:1046000095959CA09B9BA2A1968B8986807D7E7CA4
:104610007A7B7D807A7D838A93928F959694A0A9E8
:104620009F8F9096929399928F8D858686827C7FBC
:10463000827B767D817A7A888E878E908D9098970E
:104640008E8784847D75717071797A7C75686E7AD5
:104650007E7C7577787375797C7D7B777A767579D2
:104660007A7C746D7067676E6F6D696E71757C862C
:104670007F7B79767B7B74737A77726D76726F77D6
:104680007E7E787F7D81828179787B7C7A71706F84
:10469000778183808A8781868D928E88817D7981DA
:1046A0008078726F71757470757A848A8C8B878E3E
:1046B000999A8F88818085898B837A777C817C79B0
:1046C0007D83837F7F82797D848B928B8684838AAE
:1046D00095928A8B87858A848488888480847B7677
:1046E0007D868888857E7C7E848E89858A89929065
:1046F0008886827F787D7C7A7C82817879787377EE
:10470000818C8E8988888C868285867A747573728E
:1047100073797C7F7E7E797B7E82898B8B82807BA6
:10472000757A83847D7A7976777E8385827F7D7CB6
:10473000818B8E847976737776747B7F77707277CE
:104740007F88938F8789878484817F7D7B776E6F55
:10475000726E6C6F6C70757A7B838B8C928D847C9F
:104760007E80817A7879726F6D6D747E7F7F7E7ABC
:104770007B858D908C837B7878788286847D737638
:104780007C8083898984848486878989857F7C7BF2
:104790007B7D848086888383858A898A8B847F7EDB
:1047A00078757D898588867A726E7980868786831A
:1047B0008085888E9086807977777B83837F7873F6
:1047C0006E707F84838680808282828288817B7CF7
:1047D0007E80808585827E7D808086898E9085839F
:1047E0007C797B787A797779797A7E828990908BD7
:1047F00088848B8F8A8C82787673777878777170DB
:1048000070747E888E8E8D8C87807F8585817C7587
:10481000716C7375777A75757C7F84888C8B8B86C9
:104820007F7D7C807E817F78757475777B7F7B7BD5
:104830007C80868F928885817B73777F80807F786C
:104840007A78788189888181818781808486858052
:104850007A747571757A7E7A78777B7D828B8C8598
:10486000808685888989857D77716F77797C858059
:1048700078767B828A87827A7B838283888A848126
:10488000807D7A8183818688898884818080827B0B
:104890007A7B79767C8386888786818486899090E6
:1048A000847B7375797B7D77717073747E828A885F
:1048B00081837D848B8C8D877B7875787976746B1A
:1048C0006A737A7C848988848389828183818585DF
:1048D0008780797B7C7C80817B81848283858A8DC3
:1048E0008A8A7F79807D7B827E7677757881878AD8
:1048F0008B8789858B9291877F827D7B7A7B7B7C7E
:1049000076716E6E74797F858280898887868989C1
:1049100088848077767772787D7A77797B7F7B7BE6
:104920007C7B79767A7E85828185867B7A8080859C
:1049300087847C787B8284847E7D77797C79807E95
:104940007F8186847E85898E918D84808079777D34
:104950007B7B7A757A7D7F8082858A87818886874E
:104960008D8E89807E79797E7D78746E6B6F767D91
:1049700080838A868083807E7F82817C7977767946
:104980007F7E7D7F808386949693969189838785A9
:10499000837F827873746F72788180818588868D39
:1049A0008C898A867871736D737473716F6D6F6E95
:1049B000747C7B7F858586898D89898F8A88817DB6
:1049C0007D8081847D7E7F7C898A838077707C77FF
:1049D00077817F7A7E786F736B7375737575777473
:1049E0007B8285808383848A898A8A8B868280857C
:1049F0007C7F8985878A8E85838380858583848271
:104A000088857E84887C787872717C838186817FBA
:104A10007E838385887D7A79727578797E777479DB
:104A200077737E7D7C78808782878A847C7B7579AA
:104A30007D7D7E8582818484888082827B7F858261
:104A40008081827F7E828682898E8B8E908E8789FE
:104A5000817C7A777F818080817C767175787775AB
:104A60007A8282878F918989887C767D807D7D7826
:104A700075727273787B7777777B7C808888848384
:104A8000857F7B7978797A797E7D7A7F798081815B
:104A9000818684838687847E887D76787B7981870A
:104AA000888D8A8585898D8B85847D7C81868981A9
:104AB0008282746E727D7E808182817F7F7F7F7B28
:104AC0007D7E838486888880858377727274707215
:104AD000767D7D7C7B78777D838B8F8F93938E869D
:104AE0007F7D796C676F737A828286837C7D808319
:104AF000888988898586898582817D7672797E819B
:104B000085888A82807C7C7C7B8081827C848B8887
:104B1000858683827C7B817D797A7C79786F7176DA
:104B2000757B838682828888878684817875767B88
:104B30008082868884827F7E808486887F7A808057
:104B40007E7A7C736C6F72797E848D8E898585897F
:104B500089868382837D8187857D7B7B76797A7E5A
:104B60007F808284807C7A7D7F7C82878A81858633
:104B7000817C767A7976797B7D7F7B827F7C7A7A7D
:104B8000797B7F878A88878B8D8683827F76787D05
:104B9000807E7D7D7A76767A797B7C848687848830
:104BA0008C8B8784827F7B7D817F807C7C7A797A05
:104BB0007B7B7D7E838482858687817E7E7C7B7EF7
:104BC00084888483817C757778767C7D7E7C7D7D0E
:104BD00085898682807E7E818786807E7B79757AD4
:104BE0007E7D7D8081838589909390877F7B797896
:104BF0007B7A77727070767A7F84878A898E8E89C5
:104C00008689847F7A7676777A7C7B787D7F7E7BD7
:104C100082838386888889898988847E7674737480
:104C2000757C7C78797976777D85868182858888A0
:104C30008B90938D847F7C7E807D7D78717575737C
:104C4000787E80808688898D888686857D74757754
:104C50007A80817E797C807E808284838489888446
:104C60008281807D7B737173767F86878281827F6C
:104C70007D8285817D7E7F80807E83847F7C797A42
:104C8000808789857F7B7A7A797F85868080838417
:104C9000888884817F7C7A7D8382847F7572797B2A
:104CA00076797F808084868C8D8D8A857C767472FF
:104CB00076787A797674797F7E7E8485817F838920
:104CC0008786838184817E7B797D817F7D7B7B7FED
:104CD0007E7A7B7E7B7B7E858688878285878883BC
:104CE000868483837C76757A7B787A7F7B7F8288E3
:104CF0008C8C8C87837F807C7B7978797572757CCE
:104D00007D7D7D82827F7F84898787857E7F807B92
:104D10007B79777979797A8388848180817E8285AD
:104D20008585817F7D7E83807D817F7F807D7A7F89
:104D30008281827D7F7F7E858B898C8B8785848035
:104D40007E7E7876787973767E7F807F7F7A797FB2
:104D5000868888898481838785817B72706F737868
:104D60007C81807A7A7B7B7F86868489868087892E
:104D700087847F78787B7D7F8184827D7D7F7F7F44
:104D8000848682878983818280807F7C7E7C80820A
:104D9000858987807E7B78777C84828487858185FE
:104DA00086848178747573757C807F797776777760
:104DB0008087848384828184898480797577777BF6
:104DC000797E807D7B828783858B8D898B88817CB2
:104DD000807C797774787B7C7F88898681818180EB
:104DE0007E8388858785817F868B8B877D7A7B789C
:104DF0007C82857D73757775747D7B7C83817E82F3
:104E000085888B84807C7A767476787976787E80D3
:104E10007E808586878A8883807D81807B7B7B7C82
:104E2000777E8387837E837E7E8383878A8A877F5C
:104E30007F7B84827E7E7C807D86898E8880827C5A
:104E4000767A7C7A7C818080847D828281817D7E7D
:104E50007D76767675777A7E7F7F7E7E838B8A837A
:104E60007E787477787B7878797372787C7A7C7FB7
:104E7000827F86878A93918D8587848384817F7AD8
:104E8000807E7F8685828081807F7F7F7B8188870F
:104E900086878784837B7B7A7F7F79797473777D3C
:104EA0007F81827A767C84827F7C787778787E8333
:104EB0007B7C7D7C7D787C7A7D78757C788186882A
:104EC00081888D899798989492928F928B8386810E
:104ED00077726876766D79716D7A83766667646AC3
:104EE0006C62565150567796B0A8A8B1A49D887FA1
:104EF0007A695D4F5156524E5163778A846E65656B
:104F0000655B6B867A8072829F7C827C776C7A94F8
:104F1000928A738AA4A6A08A8E9698B0B8C5C6C88D
:104F2000BBBEBBACA7A9A6938E745C575A5C6158F4
:104F3000769397A0A29CA49BA6A397A5987F7D9605
:104F40008C90848B9AA5957E68605D6A7A787E7174
:104F50006C647489A4A998899F8A7E657F8F6D711E
:104F6000616E6C71747A686A647E7B7E8F8D877BDC
:104F70007D626F525C66545C757D7E8A847C837E24
:104F8000665A5052423D41464F4E4553678387868D
:104F9000817F817771656F64615D718C8A7C82929B
:104FA000A5B4C2B7B1BAB2B299877E88898E99A3E7
:104FB000909EA8ABAD989EA1A288826F6670747314
:104FC0007E939F9FAEBAB9C6C3BFB2B9B7A68B7561
:104FD000735A3E393B545F586A7B879C987A8DA2FE
:104FE0009270594D54594655777380817881797DF7
:104FF000625A55665B4E4B4E63646D63666D877691
:105000007C6F7380757B7F8B81795B4B41403C5219
:10501000757B738E9C9FAB9881756E524F546584DF
:10502000989EA4B2B7ADACAB9C7F746676A0A293F9
:105030009EACA9BDA5767EAC9E9599A0C0C3AAB032
:10504000C4A4967E6F635346455A9EAF95A7A6ADFE
:10505000B28E656F7872657591B5BBA0969D998C7F
:1050600084717A6A584652868A747469666B4134D0
:10507000516867617999ABA789736F604B403A4C6F
:105080004C3F3F5D877D6676867D6B444F556C61F6
:10509000496A7A91896A637C757C757C897B6F70BB
:1050A00084A7A1769484867E595D7F99838797A291
:1050B000B7B5928886807172767A726380A5BCA239
:1050C000A7B6B1B58E7E919FA09FA0A1A7AB8E740D
:1050D000999EA39F9E9E989386A6AE98858E77797B
:1050E0007051638C97A3A99CBEBBA3869A908D8DAB
:1050F00075594C564D77785F627079825C51677351
:105100006D6D6F556F6E5446586A7685705658515E
:1051100062978B6463645B5D45435F656E7B8581ED
:1051200089886466727F847D5636415286966D6AA0
:105130007A8DA1807C9CB1A1949180928354455931
:105140006F71706350687FACB698AA9D938F7E6F25
:1051500085A098A49F9AB3A48B8EA3BFC6B68F7C5C
:1051600086B9D19A828CA0A87F6B7BA7B19B9798B8
:10517000ACAC8F79808A96854E44678CBDAE8F919A
:105180008E9D8B695C78847D78626679624F556309
:105190008886603B4A85A3805B5B69836C444F7261
:1051A00080695D6480897C797E869E82403A487CF5
:1051B0008D65495B66716C5B66748384887C8C83C7
:1051C000686271888969535C7EBFAF8F7974858A04
:1051D0006B5B6C838F715D626C6161677794967FA6
:1051E000779BC5CEBDA794A7B59C7B81ABA5979CAB
:1051F0009D9F9E9694A2B0B488637CADBEAB868121
:105200009B9F87697B8998A3948395A0899692999F
:1052100095634B5580AE9C847473868779617987DA
:1052200096867576615657595E76684D5290A1877D
:105230006E55486D835B58637F928668656F6570B5
:10524000776F71584142607E725B47456C6F4E517B
:105250006F8695A693939593958F8C795C454C7C3E
:105260009C8472627B8E856772818DA6907E747A33
:10527000798F979B8F80849EC4CFC1A2A1ACAF8E43
:105280008A898FA8A08F7A766D809D9A9F998B8846
:10529000ADC8AF957D7C897B6A6F7287A29C808840
:1052A0008D88A4A19F8B7355639B9E877D79747FA6
:1052B0007C6C6574868774756E6577807B645342F9
:1052C0004878978D7E787E827D6E6F747E8D746750
:1052D0005B4F57605D5E5C4136659189695E5F56E4
:1052E0005C5453637C9E97898C878C999D908363D3
:1052F0004C6C9B987861545D6E68545E799D938781
:105300008A858A9EADA2A8916E769DAFA89391A042
:10531000ABA6969798AEB8AC978C838EA6A1A596AF
:105320006A67A4CABEA7928F9E9C837B7D909F9341
:105330007E788183908E9284645E86A8A7A89182ED
:105340007A7967524C6174707671635C70797E7E95
:105350006447689D9F90776A6E7360515F77888815
:105360007D6C5B5D69717372583842697E72615DF4
:10537000626B6F6F777A93A29A90827D8189898719
:105380006B4449798C8676655F767B645E5D717F60
:105390007D7479727A8F9CA49F807290ABB8AB9E1B
:1053A000939C9D8879818FA3B0A8A2999CA8B2B143
:1053B000AD866D84AAB6A5917E7C83827B8492A5FE
:1053C000B7AE999492909C9B9275506894A1968FD9
:1053D0007F7685846F6570748179686456536372D3
:1053E00077694D5077A0A09683787E806D5B656964
:1053F0007273625550516372776F4F355280827B62
:10540000665A61655F5C6C7082A28C808C8E8C8F1A
:105410008D8268485C818D897767626C7A676F7A64
:105420008099998E86857F8C978E7F696A91A9B6BF
:10543000B09591A5A286929290A9AC9A908F8E9CDD
:10544000A79F9A7E6E8CB1B9A4938685817C7A855C
:105450008D99A492808F9891A6A3A0836E7890A432
:105460009C8D7171757362656B7C8B8475757376B9
:10547000928A937358607A9AA3956C707880716061
:105480006370877F6253605B6761624B393D428422
:10549000909088838281826757556A725A42433E50
:1054A0003D505C5B4839486382958E808A8E82804D
:1054B0007D89A9BDBBB2C1C2BACCC1B5A9857FA146
:1054C000B0B69D80837F7E6D656A76868477767BB5
:1054D00067686C625C422F4065766A5C6072787CBB
:1054E0007E7E97B0B4A7A4AB9B99ACB7BBA6868EC3
:1054F000ACC2C5AFA3AAAAA5998797A9A59D979A5B
:10550000897E97A4A4967B788FB8B79479777669CB
:10551000584B565A5E5B4C5A634C4450544B3A3489
:105520003A566D5A45535D5F6048566B7A76666EA3
:105530007A6A4E6268775D424563848677718990A6
:105540008E788197ACAC9F9CA9A995AABCC8C6A728
:10555000A0B5CDCFC2BCBBC3C1ADA2B6C1C2BDBA9E
:10556000C4C8AC9AAFBAB9877083A7BC9785919C21
:105570009B8A747E8E9187848A92795E797F795B2B
:105580003638496B604A545A5D4A383D524D44435F
:105590004B544635405B595B4442446480585C6AD6
:1055A0005F564947595A565163767658435F5D6452
:1055B0004E415E6E8F957C7E8E887971828E8B8354
:1055C0008FA7ADA08F9DABA594868083ABB9A4BCFB
:1055D000BDBDBAA1A5AFB0ABB9C9C7BFACB5C8C84E
:1055E000C8ACA1A3BDCEAAB3C2BDB39EA2AFB7A59E
:1055F0009BA7AFAF9183948C827C635C6C978A731A
:105600007E7C765F4C535D58545B67645843474AD1
:105610003F3B323632525A3A4D544D41343C40436E
:1056200033455B555A525D615C56433A344E6F5870
:1056300059706E6953566168595F7E8486736F7DB9
:10564000736F6B5C5866928983A5A2AB978D9AA203
:10565000988EAEB8BEB2B0BAB3A89E8C8388ADC8DF
:10566000AEC4C7C0B39BA6ACA999B3BFC0C0B6C9EE
:10567000C5B8B09D8F8DA8C1AAB0C3C0C1A59B9F5E
:10568000997C829D9FA5959B9989897E6D5B5A81A6
:105690007D7698909D85757E776053716467565BC3
:1056A000715C564B3834354C5C435E66645D4A52DF
:1056B000524831444E5B5F5D76695D594A423745D9
:1056C0006454647D706958575A4F36476169705CFD
:1056D00071796B695B54495579686C939AA3989278
:1056E0008A806C738B869994A6AF96988E847B8003
:1056F000A5A4A8BDB9BDB2BCBFB89E9EB5AABAABA1
:10570000B9D0C1BBB0ABA1A1BBAAA5BFC8C9B4B237
:10571000AEB1A19BA5A0A89BA8B6A29C928A7D7FB2
:10572000998782929DA89E9B97917D7E8A818174A4
:10573000818F816C5F5B4E56674F546A6A6D686FEC
:105740006C6851505F616859667671645548405481
:105750005F48535D62645B565860505254545958C8
:10576000626C625A584D404E5D4E606C6E72757739
:105770007670646E6B696869819186766B646B7F05
:105780007F79889195939A9E9C91909F979A908803
:1057900097ACB0AAA18E91A39F98A9B3B8B9BEB691
:1057A000AFA29DACAAAC9E94999E9F9E9986879726
:1057B0008F929EA3A5A3B4B8B09D9DA59A999188F8
:1057C0008F938B88847879817276878382818F9298
:1057D00087767981787974777C7B76736F6C777A4A
:1057E000676873736D6C747A6D5F6968645D595E28
:1057F0006865615C504E5D605055606460626B72BC
:10580000706465645E595765736E6A6154566B7354
:10581000657177736E6E777E817D827F7873707F1E
:105820008B87898880828E90888F9797979B9D9B86
:1058300096999795958884939B918F867A848B8E81
:10584000939BA49F9897A2A5A4AFACA59D90838D90
:1058500098909286767B7C79808E92918E8B9291B5
:105860008D9494939487848F9087857E7B857E7BAF
:10587000818A8C8A86838B837D8583858A7B727DF2
:105880007E736F686D7667606971797C7773787203
:105890006E706C7176675E67676A64565D6A5C59A4
:1058A000686D7478746B736B6B726969716F656C1A
:1058B000686A6B5E66796C6A7E8181878D8B928A5D
:1058C00082867E767A7F828079746B616C83776E54
:1058D000828B8A8F96959C988F96978E938F8A8EBF
:1058E00083837F7371867F737F8B96959290969555
:1058F00093979D93909496958D8E887D7A888A86CD
:1059000091928F98958E9295949598928D8E989D60
:10591000918D877D7579817B7F858A8C8988888F39
:10592000908C8A8A878384858482827D79787A764E
:10593000737A797876756D6A6F737A767474747623
:1059400075777B7D79777B7A7B817F7C78736B66DB
:105950006160646364686D73716E6D6F6D6C72739A
:1059600072767E807C7A77717273727372747376DA
:10597000737074767571736E6D757D878A88837D9B
:105980007F868A8D888683827F7777787E7E7E8207
:105990008182888E8C8D8D89878B93969391969931
:1059A0009996918B888D8B8A8582838A8E8E918A37
:1059B0008380858E92939294989B999795949794CF
:1059C000908B888C918E8A837C797F8584827E837C
:1059D00082838484858488888889898A8D8C8C894F
:1059E0007F75737878747373736E665F5F61666DCD
:1059F0006B6A676A70757B7A736B6B7173737069AE
:105A00006D6F6C6A6E6A676A686665666A737877D6
:105A10006F68676D78766E6E73777773717572776E
:105A20007F817C74787A848B887B76747F8582848E
:105A3000878D87827A79797E82817D797A7F878E58
:105A40008E8781808B989A95969696969796939442
:105A5000979696928F90929796908785868B8A8656
:105A6000848A92929294979DA6ACA99D9893969EB3
:105A7000A0958679757C7E7C7A7E7D7A787C7F8124
:105A80008C8E8C868280818D8F8B837975798077DF
:105A9000727576767170696068716E6F7171717A06
:105AA000807D787271757A6C616564635D5753515E
:105AB0005D6A70716A63636A77827F736B6D777AF0
:105AC0007372726F6E6A6561626D73716E6D7179FA
:105AD0007F7D7C7A7578858A8785838182847F7AC9
